{
  "_format": "hh-sol-artifact-1",
  "contractName": "Invoice",
  "sourceName": "contracts/Invoice.sol",
  "abi": [
    {
      "inputs": [],
      "stateMutability": "nonpayable",
      "type": "constructor"
    },
    {
      "inputs": [
        {
          "components": [
            {
              "internalType": "string",
              "name": "pro_name",
              "type": "string"
            },
            {
              "internalType": "uint256",
              "name": "pro_price",
              "type": "uint256"
            },
            {
              "internalType": "uint256",
              "name": "pro_qty",
              "type": "uint256"
            }
          ],
          "internalType": "struct Invoice.PRODUCT_DATA[]",
          "name": "prod",
          "type": "tuple[]"
        }
      ],
      "name": "addInvoice",
      "outputs": [
        {
          "internalType": "uint256",
          "name": "",
          "type": "uint256"
        }
      ],
      "stateMutability": "nonpayable",
      "type": "function"
    },
    {
      "inputs": [
        {
          "internalType": "uint256",
          "name": "invoiceNumber",
          "type": "uint256"
        }
      ],
      "name": "getInvoice",
      "outputs": [
        {
          "components": [
            {
              "components": [
                {
                  "internalType": "uint256",
                  "name": "inv_no",
                  "type": "uint256"
                },
                {
                  "internalType": "uint256",
                  "name": "inv_date",
                  "type": "uint256"
                },
                {
                  "internalType": "uint256",
                  "name": "inv_total_amt",
                  "type": "uint256"
                }
              ],
              "internalType": "struct Invoice.INVOICE_METADAT",
              "name": "header",
              "type": "tuple"
            },
            {
              "components": [
                {
                  "internalType": "string",
                  "name": "pro_name",
                  "type": "string"
                },
                {
                  "internalType": "uint256",
                  "name": "pro_price",
                  "type": "uint256"
                },
                {
                  "internalType": "uint256",
                  "name": "pro_qty",
                  "type": "uint256"
                }
              ],
              "internalType": "struct Invoice.PRODUCT_DATA[]",
              "name": "products",
              "type": "tuple[]"
            }
          ],
          "internalType": "struct Invoice.FULL_INVOICE",
          "name": "",
          "type": "tuple"
        }
      ],
      "stateMutability": "view",
      "type": "function"
    },
    {
      "inputs": [],
      "name": "globalCounter",
      "outputs": [
        {
          "internalType": "uint256",
          "name": "",
          "type": "uint256"
        }
      ],
      "stateMutability": "view",
      "type": "function"
    },
    {
      "inputs": [
        {
          "internalType": "uint256",
          "name": "",
          "type": "uint256"
        }
      ],
      "name": "globalInvoice",
      "outputs": [
        {
          "internalType": "uint256",
          "name": "inv_no",
          "type": "uint256"
        },
        {
          "internalType": "uint256",
          "name": "inv_date",
          "type": "uint256"
        },
        {
          "internalType": "uint256",
          "name": "inv_total_amt",
          "type": "uint256"
        }
      ],
      "stateMutability": "view",
      "type": "function"
    }
  ],
  "bytecode": "0x6080604052600060025534801561001557600080fd5b50336000806101000a81548173ffffffffffffffffffffffffffffffffffffffff021916908373ffffffffffffffffffffffffffffffffffffffff160217905550610ff4806100656000396000f3fe608060405234801561001057600080fd5b506004361061004c5760003560e01c80633a23cc0a1461005157806395a1b9541461008157806398896d41146100b3578063d396a7a9146100e3575b600080fd5b61006b600480360381019061006691906105f6565b610101565b6040516100789190610853565b60405180910390f35b61009b600480360381019061009691906105f6565b610289565b6040516100aa93929190610884565b60405180910390f35b6100cd60048036038101906100c89190610b60565b6102c3565b6040516100da9190610ba9565b60405180910390f35b6100eb610565565b6040516100f89190610ba9565b60405180910390f35b61010961056b565b60006001838154811061011f5761011e610bc4565b5b906000526020600020906003020160405180606001604052908160008201548152602001600182015481526020016002820154815250509050600060056000858152602001908152602001600020805480602002602001604051908101604052809291908181526020016000905b8282101561026557838290600052602060002090600302016040518060600160405290816000820180546101c090610c22565b80601f01602080910402602001604051908101604052809291908181526020018280546101ec90610c22565b80156102395780601f1061020e57610100808354040283529160200191610239565b820191906000526020600020905b81548152906001019060200180831161021c57829003601f168201915b50505050508152602001600182015481526020016002820154815250508152602001906001019061018d565b50505050905060405180604001604052808381526020018281525092505050919050565b6001818154811061029957600080fd5b90600052602060002090600302016000915090508060000154908060010154908060020154905083565b6000806000905060005b835181101561041d57600560006002548152602001908152602001600020604051806060016040528086848151811061030957610308610bc4565b5b602002602001015160000151815260200186848151811061032d5761032c610bc4565b5b602002602001015160200151815260200186848151811061035157610350610bc4565b5b6020026020010151604001518152509080600181540180825580915050600190039060005260206000209060030201600090919091909150600082015181600001908161039e9190610dff565b50602082015181600101556040820151816002015550508381815181106103c8576103c7610bc4565b5b6020026020010151604001518482815181106103e7576103e6610bc4565b5b6020026020010151602001516103fd9190610f00565b826104089190610f42565b9150808061041590610f76565b9150506102cd565b506001604051806060016040528060025481526020014281526020018381525090806001815401808255809150506001900390600052602060002090600302016000909190919091506000820151816000015560208201518160010155604082015181600201555050600360003373ffffffffffffffffffffffffffffffffffffffff1673ffffffffffffffffffffffffffffffffffffffff16815260200190815260200160002060025490806001815401808255809150506001900390600052602060002001600090919091909150553360046000600254815260200190815260200160002060006101000a81548173ffffffffffffffffffffffffffffffffffffffff021916908373ffffffffffffffffffffffffffffffffffffffff1602179055506002600081548092919061055590610f76565b9190505550600254915050919050565b60025481565b604051806040016040528061057e61058b565b8152602001606081525090565b60405180606001604052806000815260200160008152602001600081525090565b6000604051905090565b600080fd5b600080fd5b6000819050919050565b6105d3816105c0565b81146105de57600080fd5b50565b6000813590506105f0816105ca565b92915050565b60006020828403121561060c5761060b6105b6565b5b600061061a848285016105e1565b91505092915050565b61062c816105c0565b82525050565b6060820160008201516106486000850182610623565b50602082015161065b6020850182610623565b50604082015161066e6040850182610623565b50505050565b600081519050919050565b600082825260208201905092915050565b6000819050602082019050919050565b600081519050919050565b600082825260208201905092915050565b60005b838110156106da5780820151818401526020810190506106bf565b60008484015250505050565b6000601f19601f8301169050919050565b6000610702826106a0565b61070c81856106ab565b935061071c8185602086016106bc565b610725816106e6565b840191505092915050565b6000606083016000830151848203600086015261074d82826106f7565b91505060208301516107626020860182610623565b5060408301516107756040860182610623565b508091505092915050565b600061078c8383610730565b905092915050565b6000602082019050919050565b60006107ac82610674565b6107b6818561067f565b9350836020820285016107c885610690565b8060005b8581101561080457848403895281516107e58582610780565b94506107f083610794565b925060208a019950506001810190506107cc565b50829750879550505050505092915050565b600060808301600083015161082e6000860182610632565b506020830151848203606086015261084682826107a1565b9150508091505092915050565b6000602082019050818103600083015261086d8184610816565b905092915050565b61087e816105c0565b82525050565b60006060820190506108996000830186610875565b6108a66020830185610875565b6108b36040830184610875565b949350505050565b600080fd5b7f4e487b7100000000000000000000000000000000000000000000000000000000600052604160045260246000fd5b6108f8826106e6565b810181811067ffffffffffffffff82111715610917576109166108c0565b5b80604052505050565b600061092a6105ac565b905061093682826108ef565b919050565b600067ffffffffffffffff821115610956576109556108c0565b5b602082029050602081019050919050565b600080fd5b600080fd5b600080fd5b600080fd5b600067ffffffffffffffff821115610996576109956108c0565b5b61099f826106e6565b9050602081019050919050565b82818337600083830152505050565b60006109ce6109c98461097b565b610920565b9050828152602081018484840111156109ea576109e9610976565b5b6109f58482856109ac565b509392505050565b600082601f830112610a1257610a116108bb565b5b8135610a228482602086016109bb565b91505092915050565b600060608284031215610a4157610a4061096c565b5b610a4b6060610920565b9050600082013567ffffffffffffffff811115610a6b57610a6a610971565b5b610a77848285016109fd565b6000830152506020610a8b848285016105e1565b6020830152506040610a9f848285016105e1565b60408301525092915050565b6000610abe610ab98461093b565b610920565b90508083825260208201905060208402830185811115610ae157610ae0610967565b5b835b81811015610b2857803567ffffffffffffffff811115610b0657610b056108bb565b5b808601610b138982610a2b565b85526020850194505050602081019050610ae3565b5050509392505050565b600082601f830112610b4757610b466108bb565b5b8135610b57848260208601610aab565b91505092915050565b600060208284031215610b7657610b756105b6565b5b600082013567ffffffffffffffff811115610b9457610b936105bb565b5b610ba084828501610b32565b91505092915050565b6000602082019050610bbe6000830184610875565b92915050565b7f4e487b7100000000000000000000000000000000000000000000000000000000600052603260045260246000fd5b7f4e487b7100000000000000000000000000000000000000000000000000000000600052602260045260246000fd5b60006002820490506001821680610c3a57607f821691505b602082108103610c4d57610c4c610bf3565b5b50919050565b60008190508160005260206000209050919050565b60006020601f8301049050919050565b600082821b905092915050565b600060088302610cb57fffffffffffffffffffffffffffffffffffffffffffffffffffffffffffffffff82610c78565b610cbf8683610c78565b95508019841693508086168417925050509392505050565b6000819050919050565b6000610cfc610cf7610cf2846105c0565b610cd7565b6105c0565b9050919050565b6000819050919050565b610d1683610ce1565b610d2a610d2282610d03565b848454610c85565b825550505050565b600090565b610d3f610d32565b610d4a818484610d0d565b505050565b5b81811015610d6e57610d63600082610d37565b600181019050610d50565b5050565b601f821115610db357610d8481610c53565b610d8d84610c68565b81016020851015610d9c578190505b610db0610da885610c68565b830182610d4f565b50505b505050565b600082821c905092915050565b6000610dd660001984600802610db8565b1980831691505092915050565b6000610def8383610dc5565b9150826002028217905092915050565b610e08826106a0565b67ffffffffffffffff811115610e2157610e206108c0565b5b610e2b8254610c22565b610e36828285610d72565b600060209050601f831160018114610e695760008415610e57578287015190505b610e618582610de3565b865550610ec9565b601f198416610e7786610c53565b60005b82811015610e9f57848901518255600182019150602085019450602081019050610e7a565b86831015610ebc5784890151610eb8601f891682610dc5565b8355505b6001600288020188555050505b505050505050565b7f4e487b7100000000000000000000000000000000000000000000000000000000600052601160045260246000fd5b6000610f0b826105c0565b9150610f16836105c0565b9250828202610f24816105c0565b91508282048414831517610f3b57610f3a610ed1565b5b5092915050565b6000610f4d826105c0565b9150610f58836105c0565b9250828201905080821115610f7057610f6f610ed1565b5b92915050565b6000610f81826105c0565b91507fffffffffffffffffffffffffffffffffffffffffffffffffffffffffffffffff8203610fb357610fb2610ed1565b5b60018201905091905056fea26469706673582212206d9559063428ea30aa8635fb088279b4f935529832d4826149c24f138a1f8f6d64736f6c63430008110033",
  "linkReferences": {},
  "deployedLinkReferences": {}
}